S0110000626174746C65536869702E733337D3
S11300000000022091010000BD010000BD010000BC
S1130010BD010000BD010000BD010000BD010000E4
S1130020BD010000BD010000BD010000BD010000D4
S1130030BD010000BC010000BD01000065240000FA
S1130040BD010000BD010000BD010000BD010000B4
S1130050BD010000BD010000BD010000BD010000A4
S1130060BD010000BD010000BD010000BD01000094
S1130070BD010000BD010000BD010000BD01000084
S1130080BD010000BD010000BD010000BD01000074
S11300903D2E0000BD010000BD010000BD010000B7
S11300A0BD010000BD010000BD010000BD01000054
S11300B0BD010000BD010000BD010000BD01000044
S11300C0BD010000BD010000BD010000BD01000034
S11300D0BD010000BD010000BD01000010B5054CCC
S11300E0237833B9044B13B10448AFF300800123E0
S11300F0237010BD400100200000000060350000A6
S113010008B5034B1BB103490348AFF3008008BD96
S1130110000000004401002060350000154B002B56
S113012008BF134B9D46A3F5803A00218B460F462A
S11301301348144A121A02F0FFFE0F4B002B00D092
S113014098470E4B002B00D0984700200021040054
S11301500D000D48002802D00C48AFF3008002F0D7
S1130160C7FE2000290002F0AFFC02F0ADFE00BF84
S11301700000080000000220000000000000000051
S113018040010020AC01002000000000000000003D
S1130190064880470649074A074B9A42BEBF51F8B2
S11301A0040B42F8040BF8E7FFF7B8FF350300002F
S11301B06C3500000000002040010020FEE700BF75
S11301C080B400AF034BDB6C1B0EDBB21846BD469C
S11301D080BC7047B081E00F80B582B000AF00F002
S11301E01FF87860074B5B6803F00F037A6822FA04
S11301F003F37B60044A7B6813607B681846083706
S1130200BD4680BD00800C400800002080B400AFD3
S1130210024B1846BD4680BC704700BF006CDC0230
S113022080B582B000AF334BDB6A03F47053B3F58F
S1130230805F0AD0B3F5005F03D0B3F5006F08D038
S11302400BE02D4B1B687B6047E04FF400437B6061
S113025043E02A4B1B687B603FE0264BDB6803F4DA
S1130260E063B3F5007F1BD0B3F5007F05D8002B06
S113027024D0B3F5807F16D02BE0B3F5806F09D07E
S1130280B3F5A06F03D0B3F5407F06D021E01C4B3B
S11302907B6021E01B4B7B601EE01B4B7B601BE003
S11302A01A4B7B6018E0FFF78BFF0346122B02D931
S11302B0174B7B6010E0174B7B600DE0FFF780FF6E
S11302C00346122B02D9144B7B6005E0134B7B6071
S11302D002E000237B6000BF00BF064B1B689B0B42
S11302E003F0070301337A68B2FBF3F318460837C7
S11302F0BD4680BD00800C400400002000000020AA
S1130300003FAB01406F4001809FD500C0D8A700DB
S113031040B56400C0CF6A00804F120040420F0015
S113032080B400AF024B1B681846BD4680BC7047C2
S11303300000002080B400AF034B044A9A6000BF61
S1130340BD4680BC704700BF00ED00E00000000027
S113035080B400AF4FF400431846BD4680BC7047DC
S113036080B400AF4FF47A731846BD4680BC704722
S113037080B400AF024B1B681846BD4680BC704772
S11303800400002080B487B000AFF860B9607A60E0
S1130390FB6803F10473DA00BB6813449B007B61C0
S11303A07B697A681A6000BF1C37BD4680BC704701
S11303B080B485B000AF786039607B6803F1047362
S11303C0DA003B6813449B00FB60FB681B6818461B
S11303D01437BD4680BC704780B485B000AF7860E8
S11303E07B68002B03D07B68B3F5004F00BF7B68AC
S11303F0B3FA83F3DBB2C3F11F03FB60FB68184657
S11304001437BD4680BC704780B400AF034BDB6C2F
S11304101B0EDBB21846BD4680BC7047B081E00FAE
S113042080B400AF034BDB6C1B0CDBB21846BD463B
S113043080BC7047B081E00F80B582B000AFFFF799
S1130440EFFF03464A2B04D0792B02D0482B23D04C
S113045024E0154B1B699BB21B029BB203F47C5333
S1130460FB80114B9B691B091B0103F0F0039AB23B
S1130470FB881343FB800C4BDB691B0903F00F0360
S11304809AB2FB881343FB80FB88B3F5017F01D349
S1130490064B04E0064B02E0054B00E0002318463F
S11304A00837BD4680BD00BFD0FF0FE000366E01A7
S11304B00048E80180B584B000AF78600123FB6098
S11304C0FFF7BAFF02467B68934204D80023FB601F
S11304D00023BB600BE0FFF7AFFF03465B007A68C5
S11304E09A4202D80123BB6001E00223BB60FA6890
S11304F01E210848FFF746FF064B5B6823F4807211
S1130500BB681B02034913434B6000BF1037BD4651
S113051080BD00BF00800C4080B582B000AF1E21BA
S11305200448FFF745FF78607B6818460837BD46E6
S113053080BD00BF00800C4080B582B000AF214B6D
S11305405B6903F4E063B3F5007F1CD0B3F5007F6F
S113055005D8002B25D0B3F5807F1FD02AE0B3F552
S1130560C06F24D0B3F5E06F1ED0B3F5407F21D126
S1130570FFF74AFF0346122B02D9134B7B601CE0A2
S1130580124B7B6019E0FFF73FFF0346122B02D9A1
S11305900F4B7B6011E00F4B7B600EE00E4B7B60DA
S11305A00BE00E4B7B6008E00D4B7B6005E00D4BD0
S11305B07B6002E000237B6000BF7B68184608373D
S11305C0BD4680BD00800C40804F120040420F00A9
S11305D040B56400C0CF6A00C0D8A700809FD50092
S11305E0406F4001003FAB0180B582B000AF0D48C1
S11305F000F0D4FB0346FB70FB78072B05D0092BD6
S113060007D1FFF70DFE786006E0FFF795FF7860ED
S113061002E000237B6000BF7B6818460837BD46B4
S113062080BD00BF06000E0080B485B000AF7860C6
S11306303960204B5B6803F00703FB60FB68012B08
S113064001D9042B02D10023FB7202E00123FB72C7
S113065000BF7B68184A934207D9FB7A002B01D06C
S1130660052300E00423FB6016E07B68124A9342F2
S11306700BD87B68114A934207D9FB7A002B01D02F
S1130680032300E00123FB6006E0FB7A002B01D08A
S1130690022300E00023FB60064B5B6823F00702A3
S11306A00449FB6813434B6000BF1437BD4680BC4C
S11306B0704700BF00000C400048E8010024F4002B
S11306C080B582B000AF0E4BDB6B002B14BF01234F
S11306D00023FB710A4B41F67132DA63FFF796FD92
S11306E0034600211846FFF79FFFFB79002B02D039
S11306F0034B0022DA6300BF0837BD4680BD00BF4C
S113070000000C4080B584B000AF786039600C4BB9
S1130710DB6B002B14BF01230023FB73084B41F652
S11307207132DA6339687868FFF77EFFFB7B002B50
S113073002D0034B0022DA6300BF1037BD4680BDF0
S113074000000C4090B585B000AF78600023BB601A
S11307507B68344A934203D0334A934200D000E08A
S113076000BF786800F01AFB0346FB607B682D4AE3
S1130770934203D02C4A934206D00CE02B4B9B6A45
S113078003F00303FB6006E0284B9B6A9B0803F01D
S11307900303FB6000BFFB68032B39D801A252F8A6
S11307A023F000BFDB070000B5070000BD07000011
S11307B0C5070000FFF7CCFDB8602DE0FFF7D8FDBA
S11307C0B86029E0FFF708FD0446FFF7A5FE0346DD
S11307D0013324FA03F3BB601EE00023BB607B6893
S11307E0104A934203D07B680F4A934213D10F4BB4
S11307F09A6A7B680B498B4201D1102300E01423D1
S113080022FA03F3002B06D0FFF7AAFDB86002E03A
S11308100023BB6000E000BFBB6818461437BD4628
S113082090BD00BF02001E000300200000800C40A9
S113083080B483B000AF7860094B5B6D03F00103B3
S1130840002B07D100BF064B1A6D7B681340002BA9
S1130850F9D100E000BF0C37BD4680BC704700BF33
S113086000800C4080B582B000AF104800F096FACA
S11308700346FB70FB78032B07D0092B09D0022B0E
S11308800BD1FFF775FD78600AE0FFF761FD786032
S113089006E0FFF7C5FC786002E000237B6000BF40
S11308A07B6818460837BD4680BD00BF0723260075
S11308B080B400AF00BFBD4680BC704780B400AFB9
S11308C000BFBD4680BC704790B585B000AF78606E
S11308D039607B681B0903F00F03FB60FB68013B75
S11308E0082B00F2F48001A252F823F01109000051
S11308F0CF0A0000CF0A000045090000CF0A00001B
S1130900CF0A00006D090000B90900007B0A00004D
S11309103B68002B02D03B68082B00BFFFF7D0FEDA
S11309206D4B1B6823F4E0323B68013B9B036A492F
S113093013430B60FFF750FCB8600021B868FFF761
S1130940E1FEC5E03B68002B03D03B68B3F5007FB4
S113095000BF3868FFF740FD38605F4B9B6823F0A9
S11309600F025D493B6813438B60B1E03B68002B89
S113097003D03B68B3F5007F00BFFFF7A1FEFFF78C
S11309804FFC02463B68B2FBF3F31846FFF792FDB7
S11309903868FFF721FD38604F4B5B6823F00F0286
S11309A04D493B6813434B60FFF716FCB8600021C8
S11309B0B868FFF7A7FE8BE07B68484A93421ED0D5
S11309C0464A934203D8464A934207D054E0454AE4
S11309D0934225D0444A93423ED04DE00420FFF791
S11309E027FF3868FFF7F8FC38603B4B9B6E23F019
S11309F0F0023B681B01384913438B663CE004203A
S1130A00FFF716FF3868FFF7E7FC3860324B9B6E40
S1130A1023F470623B681B022F4913438B662BE05F
S1130A203B680F2B02D93B68802B00BF0420FFF7E3
S1130A30FFFE3868FFF7D0FC3860274B9B6E23F429
S1130A4040541020FFF7C8FC02463B689B1A1B0366
S1130A50214A234393660FE00420FFF7E9FE386838
S1130A60FFF7BAFC38601C4B9B6E23F003021A4953
S1130A703B6813438B6600BF2AE07B681B4A9342A2
S1130A8003D01B4A934210D020E04020FFF7D0FE51
S1130A903868FFF7A1FC38600F4B1B6F23F003028B
S1130AA00D493B6813430B6710E04020FFF7C0FE7D
S1130AB03868FFF791FC3860074B1B6F23F0300256
S1130AC03B681B01044913430B6700BF00E000BFF0
S1130AD000BF1437BD4690BD00800C408026160030
S1130AE08016120080002A0080062E0090071A004B
S1130AF090171C0080B586B000AF78600B46FB7081
S1130B0000233B617B681B0A03F00F03013B092BA5
S1130B1045D801A252F823F0550B00005B0B0000EE
S1130B20410B00009F0B00009F0B0000610B0000B5
S1130B306B0B00009F0B00009F0B0000750B000067
S1130B40194B7B61194800F03DF803461846FFF73E
S1130B50B1FC12E0164B7B610FE0164B7B610CE09D
S1130B60154B7B6101233B6107E0144B7B61102330
S1130B703B6102E0124B7B6100BF7B681B0B03F0FF
S1130B801F03FB603B69002B02D03869FFF750FE5E
S1130B90FB781A46F9687869FFF7F4FB00E000BFB8
S1130BA01837BD4680BD00BF40800C4000430200A2
S1130BB008800C4044800C4058800C4060800C40FD
S1130BC078800C4090B585B000AF78607B6803F402
S1130BD07813B3F5D01F00F0AB80B3F5D01F1AD84B
S1130BE0B3F5602F00F0BF80B3F5602F08D8B3F5DC
S1130BF0003F3CD0B3F5802F2DD0002B27D0BEE092
S1130C00B3F5901F3CD0B3F5B01F47D0B3F5801FA8
S1130C1000F0AD80B3E0B3F5181F00F0AC80B3F57D
S1130C20181F0AD8B3F5F01F25D0B3F5001F7AD0EA
S1130C30B3F5E01F00F08980A1E0B3F5301F4ED07A
S1130C40B3F5381F62D0B3F5281F35D097E0FFF70E
S1130C50E7FAF86096E0FFF7E3FAF8604C4B9B681C
S1130C6003F00F03FA6822FA03F3FB608AE0FFF74C
S1130C70B3FAF86086E04748FFF764FDF86081E066
S1130C804448FFF75FFDF860414B9B6E1B0903F07E
S1130C900F03FA6822FA03F3FB6073E03D48FFF7A1
S1130CA051FDF8603A4B9B6E1B0A03F00F03FA6880
S1130CB022FA03F3FB6065E03648FFF743FDF86072
S1130CC0334B9B6E1B0B03F003041020FFF784FBD4
S1130CD003462344FA6822FA03F3FB6052E02D48EA
S1130CE0FFF730FDF8602A4B9B6E1B0B03F00303E8
S1130CF0FA6822FA03F3FB60254BDB6F03F007036A
S1130D000133FA68B2FBF3F3FB603BE02148FFF7E1
S1130D1019FDF8601E4B9B6E03F00303FA6822FA78
S1130D2003F3FB602EE01C48FFF70CFDF86029E09C
S1130D301948FFF707FDF860154B1B6F03F0030319
S1130D40FA6822FA03F3FB601CE01348FFF7FAFC8D
S1130D50F8600F4B1B6F1B0903F00303FA6822FAB8
S1130D6003F3FB600EE0FFF73FFCF8600AE0FFF7D7
S1130D70E3FBF86006E0FFF775FDF86002E000238E
S1130D80FB6000BFFB6818461437BD4690BD00BF2A
S1130D9000800C4002001E000300200080B485B0D7
S1130DA000AF78600123FB737B6803F00F03BB6023
S1130DB0BB68013B062B00F2938001A252F823F09A
S1130DC0DD0D0000130E00004F0E0000E10E0000C8
S1130DD0E10E00008B0E0000AD0E0000454BDB6AF7
S1130DE003F47053B3F5805F09D0B3F5005F03D00B
S1130DF0B3F5006F06D008E00223FB7308E0032379
S1130E00FB7305E00423FB7302E00523FB7300BFBF
S1130E1069E0384B9B6A03F00303022B06D0032BD3
S1130E2007D0012B08D10323FB730FE00223FB73CC
S1130E300CE00623FB7309E02E4B9B6A03F480331A
S1130E40002B02D00A23FB7300E000BF4BE0294BC8
S1130E509B6A03F00C03082B06D00C2B07D0042B41
S1130E6008D10323FB730FE00223FB730CE006237A
S1130E70FB7309E01F4B9B6A03F48013002B02D021
S1130E800A23FB7300E000BF2DE01A4B1B6803F03C
S1130E908053002B03D0B3F1805F03D023E00723FA
S1130EA0FB7302E00923FB7300BF1CE0114BDB6AF8
S1130EB003F46033B3F5803F08D0B3F5003F08D0A6
S1130EC0B3F5004F08D10923FB7308E00223FB7339
S1130ED005E00323FB7302E00123FB7300BF02E080
S1130EE00023FB7300BFFB7B18461437BD4680BC50
S1130EF0704700BF00800C4080B588B000AF7860B8
S1130F000B46FB700323FB610323FB7600233B6149
S1130F107B6803F00F03FB60FB68013B062B00F2C8
S1130F202C8101A252F823F0450F00002310000089
S1130F30231000007B1100007B110000E910000069
S1130F4013110000FB78023B082B00F2188101A268
S1130F5052F823F0790F0000830F00008D0F00007A
S1130F60CF0F00007F1100007F1100007F110000EF
S1130F707F1100007F1100000423FB610023FB7636
S1130F8031E00323FB610123FB762CE00223FB61A8
S1130F900223FB76FFF750FA034601331846FFF7A6
S1130FA089FAFFF7BDF90246784B9A4206D9784B85
S1130FB01B68774A43F06003136014E0744B1B68AA
S1130FC023F06003724A43F0200313600BE0012313
S1130FD0FB610323FB76FFF72FFA03460133184620
S1130FE0FFF768FA00BFFB7E01220121184600F0DA
S1130FF0F3F8FFF765FBFFF75BFC654AFB69536297
S11310006448FFF7DFFD03461846FFF753FAFFF77E
S1131010E3F8B8600021B868FFF774FBFFF74EFCF3
S1131020B0E0FB78013B092B00F2AB8001A252F83F
S113103023F000BF5D100000631000007310000077
S1131040831100008311000083100000831100004D
S113105083110000831100009F10000000237B61B6
S113106022E001220121002000F0B6F802237B6176
S11310701AE001220121012000F0AEF801237B6176
S113108012E0FFF7A9F8B860B868FFF713FA012275
S113109004214148FFF776F903237B6104E0002330
S11310A07B6101233B6100BFFB68022B0DD1384BF0
S11310B09B6A23F4803323F003037A691A433B6960
S11310C01B04334913438B625CE0314B9B6A23F46A
S11310D0801323F00C037A6992001A433B691B05C1
S11310E02B4913438B624DE0FB78072B02D0092B6D
S11310F007D047E0264B1B68254A23F08053136032
S113110006E0234B1B68224A43F08053136000BF60
S113111038E0FB78032B14D0092B22D0022B00D00B
S113112030E001220121002000F056F8184B402243
S11311305A6200BF164BDB6A03F48033002BF9D0EC
S11311401AE001220121012000F046F8104B602230
S11311505A6200BF0E4BDB6A03F40033002BF9D054
S11311600AE00B4B20225A6200BF094BDB6A03F4EE
S11311700043002BF9D000BF04E000BF02E000BF31
S113118000E000BF2037BD4680BD00BF0048E80135
S113119000800C400043020040800C4080B483B0C7
S11311A000AF78600B4B9B6D03F00803002B0CD150
S11311B07B6803F007037B60064BDB6F23F00702B9
S11311C004497B681343CB6700E000BF0C37BD467E
S11311D080BC704700800C4080B586B000AF0346E9
S11311E0FB710B46BB7113467B71FB79042B48D80A
S11311F001A252F823F000BF45120000371200008C
S11312001B1200000D1200002912000001233B6193
S11312100223FB6001237B611DE004233B6108235F
S1131220FB6003237B6116E010233B612023FB60FA
S113123005237B610FE040233B618023FB60072390
S11312407B6108E04FF480733B614FF40073FB60F3
S113125009237B6100BFBB79002B0ED00B4A3B698D
S113126013627B79002B0DD000BF79690848FFF722
S11312709FF80346002BF8D004E0044AFB6813628D
S113128000E000BF1837BD4680BD00BF00800C40A1
S11312902C800C4080B483B000AF03463960FB71EE
S11312A0FB79002B0DD0FB79012B0AD0FB79022BA3
S11312B007D0FB79032B04D0FB79042B01D0FB79F5
S11312C0052B01223B6802FA03F30749FA79184611
S11312D01346DB0013449B000B441433186000BF17
S11312E00C37BD4680BC70470060004080B483B0BA
S11312F000AF03463960FB71FB79002B0DD0FB79FD
S1131300012B0AD0FB79022B07D0FB79032B04D0E5
S1131310FB79042B01D0FB79052B01223B6802FAEF
S113132003F30749FA7918461346DB0013449B007C
S11313300B441033186000BF0C37BD4680BC7047A7
S11313400060004080B584B000AFB9607B600346A4
S1131350FB731346BB73FB7B002B0DD0FB7B012B74
S11313600AD0FB7B022B07D0FB7B032B04D0FB7B37
S1131370042B01D0FB7B052BBB7B002B0DD07B68A2
S1131380002B05D0FB7BB9681846FFF7AFFF04E0DC
S1131390FB7BB9681846FFF77DFFBB68072B20D895
S11313A02D49FA7B1346DB0013449B000B440433A2
S11313B01A68BB689B000F2101FA03F3DB43134057
S11313C0B97BBA68920001FA02F211462248FA7B0C
S11313D019431346DB0013449B0003440433196090
S11313E025E01D49FA7B1346DB0013449B000B44A4
S11313F008331A68BB6803F18043083B9B000F2144
S113140001FA03F3DB4302EA0301BA7BBB6803F18D
S11314108043083B9B0002FA03F30F48FA7B19430D
S11314201346DB0013449B00034408331960BB7B61
S1131430002B0DD17B68002B05D0FB7BB9681846C7
S1131440FFF754FF04E0FB7BB9681846FFF722FF5F
S113145000BF1037BD4680BD0060004080B483B03B
S113146000AF0346FB71FB79002B06D0084B1B68C9
S1131470074A43F00103136005E0054B1B68044A67
S113148023F00103136000BF0C37BD4680BC7047D6
S113149000A0084080B487B000AFF860B9607A60FB
S11314A0FB6803F10473DA00BB6813449B007B619F
S11314B07B697A681A6000BF1C37BD4680BC7047E0
S11314C080B584B000AF78601A4B5B68FB60002085
S11314D0FFF7C4FFFB6823F4830323F01F03FB60BF
S11314E07B685B68FA681343FB607B681B7A1A4667
S11314F0FB681343FB607B685B7A1A46FB68134303
S1131500FB607B68DB68FA681343FB607B681B8ABB
S11315101A46FB681343FB60064AFB6853607B680A
S11315201B78002B02D00120FFF798FF00BF103773
S1131530BD4680BD00A0084080B485B000AF78608F
S11315400D4B5B68FB60FB6823F48033FB607B68B6
S1131550002B08D0B3F5803F00D005E0FB6843F4CE
S11315608033FB6000E000BF034AFB68536000BFA8
S11315701437BD4680BC704700A0084080B483B0D7
S113158000AF03460A46FB8013467B717B79002B30
S113159006D0094B9A68FB88074913438B6006E021
S11315A0054B9A68FB88DB43034913408B6000BFFB
S11315B00C37BD4680BC704700A0084080B584B09D
S11315C000AFF860B9601346FB71FB68072B00F2AB
S11315D0B38001A252F823F0F9150000211600008F
S11315E0491600007116000099160000C11600008B
S11315F0E916000011170000BB681F2B06DCBB684E
S1131600FA7919464F48FFF745FF96E0BB68203B3F
S1131610BB60BB68FA7919464B48FFF73BFF8CE087
S1131620BB681F2B06DCBB68FA7919464748FFF7ED
S113163031FF82E0BB68203BBB60BB68FA79194686
S11316404348FFF727FF78E0BB681F2B06DCBB6825
S1131650FA7919463F48FFF71DFF6EE0BB68203B4F
S1131660BB60BB68FA7919463B48FFF713FF64E097
S1131670BB681F2B06DCBB68FA7919463748FFF7AD
S113168009FF5AE0BB68203BBB60BB68FA79194686
S11316903348FFF7FFFE50E0BB681F2B06DCBB6836
S11316A0FA7919462F48FFF7F5FE46E0BB68203B60
S11316B0BB60BB68FA7919462B48FFF7EBFE3CE0A8
S11316C0BB681F2B06DCBB68FA7919462748FFF76D
S11316D0E1FE32E0BB68203BBB60BB68FA79194687
S11316E02348FFF7D7FE28E0BB681F2B06DCBB6846
S11316F0FA7919461F48FFF7CDFE1EE0BB68203B70
S1131700BB60BB68FA7919461B48FFF7C3FE14E0B7
S1131710BB681F2B06DCBB68FA7919461748FFF72C
S1131720B9FE0AE0BB68203BBB60BB68FA79194686
S11317301348FFF7AFFE00E000BF00BF1037BD46FF
S113174080BD00BF40A0084050A0084044A008400D
S113175054A0084048A0084058A008404CA00840A5
S11317605CA00840CCA00840B4A00840D0A0084029
S1131770B8A00840D4A00840BCA00840D8A00840A5
S1131780C0A0084080B487B000AFF860B9607A6048
S1131790FB68072B00F2AC8001A252F823F000BFD3
S11317A0C1170000E5170000091800002D180000FB
S11317B05118000079180000A1180000C918000091
S11317C04E4B1B6C7B61BB68DB437A6913407B61C6
S11317D0BA687B6813407A6913437B61474A7B6923
S11317E0136486E0454B5B6C7B61BB68DB437A69C1
S11317F013407B61BA687B6813407A6913437B6149
S11318003E4A7B69536474E03C4B9B6C7B61BB68D0
S1131810DB437A6913407B61BA687B6813407A6959
S113182013437B61354A7B69936462E0334BDB6C21
S11318307B61BB68DB437A6913407B61BA687B6870
S113184013407A6913437B612C4A7B69D36450E06B
S11318502A4BD3F8CC307B61BB68DB437A691340F5
S11318607B61BA687B6813407A6913437B61234ABE
S11318707B69C2F8CC303CE0204BD3F8D0307B619C
S1131880BB68DB437A6913407B61BA687B681340A9
S11318907A6913437B61194A7B69C2F8D03028E026
S11318A0164BD3F8D4307B61BB68DB437A691340B1
S11318B07B61BA687B6813407A6913437B610F4A82
S11318C07B69C2F8D43014E00C4BD3F8D8307B6178
S11318D0BB68DB437A6913407B61BA687B68134059
S11318E07A6913437B61054A7B69C2F8D83000E00A
S11318F000BF00BF1C37BD4680BC704700A0084035
S113190080B487B000AFF860B9607A60FB68072BD9
S113191000F2AC8001A252F823F000BF3D19000090
S11319206119000085190000A9190000CD190000F3
S1131930F51900001D1A0000451A00004E4B1B6DDE
S11319407B61BB68DB437A6913407B61BA687B685F
S113195013407A6913437B61474A7B69136586E0C8
S1131960454B5B6D7B61BB68DB437A6913407B61EC
S1131970BA687B6813407A6913437B613E4A7B698A
S1131980536574E03C4B9B6D7B61BB68DB437A69B8
S113199013407B61BA687B6813407A6913437B61A7
S11319A0354A7B69936562E0334BDB6D7B61BB68D1
S11319B0DB437A6913407B61BA687B6813407A69B8
S11319C013437B612C4A7B69D36550E02A4BD3F8DF
S11319D0B4307B61BB68DB437A6913407B61BA68CE
S11319E07B6813407A6913437B61234A7B69C2F89D
S11319F0B4303CE0204BD3F8B8307B61BB68DB43A8
S1131A007A6913407B61BA687B6813407A6913432F
S1131A107B61194A7B69C2F8B83028E0164BD3F8C9
S1131A20BC307B61BB68DB437A6913407B61BA6875
S1131A307B6813407A6913437B610F4A7B69C2F860
S1131A40BC3014E00C4BD3F8C0307B61BB68DB4383
S1131A507A6913407B61BA687B6813407A691343DF
S1131A607B61054A7B69C2F8C03000E000BF00BF5B
S1131A701C37BD4680BC704700A0084080B483B0CA
S1131A8000AF7860064B5B6823F4E01204497B687E
S1131A9013434B6000BF0C37BD4680BC704700BF8A
S1131AA000A0084080B485B000AF78601A4B5B6931
S1131AB0DBB29B00DBB203F03C03FB73164B1B69E8
S1131AC09B09DBB203F00303DAB2FB7B1343FB7322
S1131AD07B68FA7B9A70104B1B69DBB203F03F03FF
S1131AE0DAB27B685A700C4B9B691B09DBB21B0191
S1131AF0FB73094BDB691B09DBB203F00F03DAB29A
S1131B00FB7B1343FB737B68FA7B1A7000BF1437AB
S1131B10BD4680BC704700BFD0FF0FE080B483B0E7
S1131B2000AF78600B46FB70FB7843F01003DBB228
S1131B301A467B689A6500BF0C37BD4680BC704767
S1131B4080B586B000AFF860B9607A60FB70BB689E
S1131B50002B03D12448FFF735F8B860FB78202B1D
S1131B600CD0202B02DC002B05D03AE0402B08D00F
S1131B70602B09D035E010237B6108E008237B61EA
S1131B8005E006237B6102E004237B6100BFBB68A0
S1131B909A007B69796801FB03F35B0813443B619A
S1131BA07B697A6802FB03F33A69B2FBF3F33B61A6
S1131BB03B69043B3B613B699B013B613A690B4BCD
S1131BC013403B61FB681B6823F06002FB681A60EA
S1131BD0FB681A68FB781A43FB681A60FB683A6969
S1131BE05A611837BD4680BD40810400C0FF1F0004
S1131BF080B582B000AF786039607B68284A934230
S1131C000ED07B68274A93420AD07B68264A9342C7
S1131C1006D07B68254A934202D07B68244A9342CB
S1131C2000BF786800F046F83B689B7C002B05D029
S1131C307B681B6843F080427B681A603B68DB7CEE
S1131C40002B05D03B681B7D19467868FFF766FFBB
S1131C503B685B7B1A463B681B8A13433A68D2890C
S1131C601A437B685A603B6859683B689A683B68CA
S1131C701B7B7868FFF764FF3B685B7D002B05D016
S1131C807B681B6843F480327B681A603B681B786E
S1131C901A467B68DA6000BF0837BD4680BD00BFC6
S1131CA000C0004000C4004000C8004000E0004004
S1131CB000E4004080B483B000AF78607B68244ABD
S1131CC093420ED07B68234A93420AD07B68224A0F
S1131CD0934206D07B68214A934202D07B68204A13
S1131CE0934200BF7B6840F6AA62DA607B680022F8
S1131CF01A607B6841F205025A607B6800229A6090
S1131D007B6800225A617B680022DA647B6841F6B2
S1131D10F9729A647B6800225A657B680C4A934284
S1131D2002D17B6800221A657B6800229A657B6871
S1131D30084A934203D07B68074A934202D17B68E6
S1131D400022DA6500BF0C37BD4680BC704700BF77
S1131D5000C0004000C4004000C8004000E0004053
S1131D6000E4004080B483B000AF0346FB71FB790C
S1131D70002B03D0054B01221A6602E0034B00221C
S1131D801A6600BF0C37BD4680BC704700A00840EF
S1131D9080B483B000AF786000BF054B5A6E7B6897
S1131DA01340002BF9D100BF0C37BD4680BC7047EF
S1131DB000A0084080B483B000AF7860054B9A6AF5
S1131DC07B68DB43034913408B6200BF0C37BD467D
S1131DD080BC704700A0084080B500AF00222849AD
S1131DE00020FFF7CFFC002225490120FFF7CAFCA1
S1131DF0002223490220FFF7C5FC002220490320CA
S1131E00FFF7C0FC00221E490420FFF7BBFC0022A0
S1131E101B490520FFF7B6FC002219490620FFF7ED
S1131E20B1FC002216490720FFF7ACFC0022FF2179
S1131E300020FFF765FD0022FF210120FFF760FD70
S1131E400022FF210220FFF75BFD0022FF21032077
S1131E50FFF756FD0022FF210420FFF751FD002269
S1131E60FF210520FFF74CFD0022FF210620FFF78C
S1131E7047FD0022FF210720FFF742FD00BF80BD80
S1131E8000F00FF080B500AF002226490720FFF7CD
S1131E9079FC002224490620FFF774FC0022224921
S1131EA00520FFF76FFC00221F490420FFF76AFC9E
S1131EB000221D490320FFF765FC00221A49022075
S1131EC0FFF760FC002218490120FFF75BFC0022A9
S1131ED04FF020410020FFF755FC00220721072086
S1131EE0FFF70EFD002207210620FFF709FD00225F
S1131EF007210520FFF704FD002207210420FFF736
S1131F00FFFC002207210320FFF7FAFC002207212F
S1131F100220FFF7F5FC002207210120FFF7F0FC67
S1131F2000BF80BD00E00F5000E00FF080B582B02C
S1131F3000AF0346FB7101212448FEF7DBFD0321BA
S1131F402348FEF7D9FF40212248FEF7BDFC0120BB
S1131F50FFF724F901212048FEF7CCFD4FF0FF30B4
S1131F60FFF728FF1D48FFF7ABFA01210820FFF710
S1131F7005FB01211020FFF701FB01218020FFF761
S1131F80FDFA01214FF48070FFF7F8FA01214FF4B4
S1131F900070FFF7F3FAFB79002B0DD04FF44020CB
S1131FA0FFF76CFD4FF48030FFF7C6FA0C4BDB6F84
S1131FB00B4A43F00803D367FFF70EFF4FF0FF30DF
S1131FC0FFF7E6FE00BF0837BD4680BD00430200B0
S1131FD002001E0080002A0000362C00303400006D
S1131FE000800C4080B58AB000AF78607B6842F214
S1131FF00E72934202DD42F20F737B607B6813F52D
S11320007A7F01DC3D4B7B607B68002B06DA7868C5
S113201000F056FF78600123BB6101E00023BB613F
S11320204FF0FF30FFF7B4FE0120FFF79BFE00F0F6
S11320306DF80123FB6100233B6254E07A68FB697D
S113204092FBF3F22E4B83FB02139910D317C91A98
S11320500B469B000B445B00D11A0B46FB82BB6909
S1132060012B04D13B6A032B01D11023FB82FB8A91
S1132070244A32F81330BB8200237B6227E02249D2
S11320803A6A1346DB009B1A5B00CA187B6A134446
S1132090CB331B783B611C493A6A1346DB009B1A1D
S11320A05B00CA187B6A1344C4331B78FB60BA8A8A
S11320B07B6A42FA03F303F00103002B04D00122EC
S11320C03969F868FFF77AFA7B6A01337B627B6AC5
S11320D0062BD4DDFA6913469B0013445B00FB61B5
S11320E03B6A01333B623B6A032BA7DD0020FFF709
S11320F039FE00BF2837BD4680BD00BF19FCFFFF75
S1132100676666660C3400005431000080B500AF89
S1132110002278210120FFF7F3FB0022782102201E
S1132120FFF7EEFB002278210320FFF7E9FB0022F2
S113213078210420FFF7E4FB002278210520FFF733
S1132140DFFB002278210620FFF7DAFB002278214A
S11321500720FFF7D5FB00BF80BD000080B58AB023
S113216000AF7860786800F047FF0346BB61002346
S11321703B624FF0FF30FFF70BFE0120FFF7F2FD4B
S1132180FFF780FE00233B6245E03A6ABB699A424E
S113219003DA7B681B787B6201E020237B627B6A25
S11321A0203B7B62214A7B6A32F81330FB82002396
S11321B0FB6127E01E493A6A1346DB009B1A9B0029
S11321C0CA18FB6913440E331B783B6118493A6AF9
S11321D01346DB009B1A9B00CA18FB6913441B7847
S11321E0FB60FA8AFB6942FA03F303F00103002B54
S11321F005D0FB68396901221846FFF7DFF9FB694E
S11322000133FB61FB690D2BD4DD7B6801337B60FB
S11322103B6A01333B623B6A062BB6DD0020FFF7C5
S1132220A1FD00BF2837BD4680BD00BF5433000068
S11322305431000080B584B000AF78603960114A31
S11322407B68134403F583731B78FB600D4A7B683A
S1132250134403F587731B78BB603B68002B06D0DF
S1132260FB68B96801221846FFF7A8F905E0FB6886
S1132270B96800221846FFF7A1F900BF1037BD4620
S113228080BD00BF5431000080B483B000AF7860DB
S1132290274B1B78022B0DD17B681B68062B03D1BF
S11322A07B6800221A603AE07B681B685A1C7B68D2
S11322B01A6034E01E4B1B78012B0DD17B681B6820
S11322C0002B03D17B6806221A6028E07B681B6818
S11322D05A1E7B681A6022E0154B1B78042B0DD123
S11322E07B685B68002B03D17B680D225A6016E083
S11322F07B685B685A1E7B685A6010E00C4B1B7845
S1132300032B0CD17B685B680D2B03D17B68002207
S11323105A6004E07B685B685A1C7B685A60044B13
S113232000221A7000BF0C37BD4680BC704700BF46
S11323300C00002080B483B000AF3B4683E8030068
S11323407B68062B02D07B680A2B16D13B68164AA1
S113235032F813203B6842F0400291B2124A22F84C
S113236013103B68104A32F813203B6842F4806231
S113237091B20D4A22F8131010E03B680A4A32F871
S113238013301AB27B68012101FA03F31BB2134321
S11323901AB23B6891B2044A22F8131000BF0C37FA
S11323A0BD4680BC704700BF5C01002080B487B08C
S11323B000AF07F1080383E803007A600023FB758C
S11323C0124B1B680133114A1360B96810487A68CC
S11323D01346DB009B1A0B4430F81330BB82FB68B6
S11323E0012202FA03F37B82BA8A7B8A13409BB2EE
S11323F0002B02D00123FB7501E00023FB75FB7D5C
S113240018461C37BD4680BC704700BF6C010020D5
S11324106434000080B485B000AF78600023FB60B2
S113242013E00E497A681346DB009B1AFA681344DA
S113243031F813200A49FB6831F813309A4201D06D
S1132440002306E0FB680133FB60FB68062BE8DD34
S1132450012318461437BD4680BC7047643400001D
S11324605C01002080B400AF044B1B680133034AB5
S1132470136000BFBD4680BC704700BF80010020D0
S113248080B485B000AF7860074B1B68FB6000BF69
S1132490054B1A68FB68D31A7A689A42F8D800BFC9
S11324A01437BD4680BC704780010020B0B58AB0A7
S11324B000AF2B4B07F10C041D460FCD0FC495E85C
S11324C003002060043421703FE000237B6228E095
S11324D0244B1B78052B03D1234B01221A701DE0DA
S11324E0224BD3E900124B1C42F100041F4AC2E9FB
S11324F000347B6A07F10C02D1183B1D07221846F1
S113250000F082FD0023FB723B1D1846FFF726FEF8
S11325104FF4AF70FFF7B4FFFFF75EFC7B6A013343
S11325207B627B6A102BD3DD104B18CB184600F06E
S11325300BFD00F02DFD03465A4203F00F0302F099
S11325400F0258BF53420A4A1360074B1B7883F0AB
S11325500103DBB2002BB8D100BF2837BD46B0BDA4
S1132560443400000C0000206A010020780100209F
S11325707001002080B582B000AF3B4683E80300C1
S11325807B680D2B00F2AC8101A252F823F000BF4E
S1132590C9250000FD250000312600006526000045
S11325A099260000CD2600000127000055270000D1
S11325B089270000BD270000F127000045280000FE
S11325C079280000AD2800003A68C94911F8123092
S11325D043F0010301F81230C54800F01FFBFA2054
S11325E0FFF74EFF3A68C24911F812306FF3000347
S11325F001F81230BE4800F011FB71E13A68BC49A1
S113260011F8123043F0020301F81230B84800F018
S113261005FBFA20FFF734FF3A68B54911F8123088
S11326206FF3410301F81230B14800F0F7FA57E1B3
S11326303A68AF4911F8123043F0040301F812303C
S1132640AB4800F0EBFAFA20FFF71AFF3A68A84902
S113265011F812306FF3820301F81230A44800F02D
S1132660DDFA3DE13A68A24911F8123043F008035B
S113267001F812309E4800F0D1FAFA20FFF700FF6B
S11326803A689B4911F812306FF3C30301F8123012
S1132690974800F0C3FA23E13A68954911F81230DB
S11326A043F0100301F81230914800F0B7FAFA2011
S11326B0FFF7E6FE3A688E4911F812306FF30413FF
S11326C001F812308A4800F0A9FA09E13A68884909
S11326D011F8123043F0200301F81230844800F05E
S11326E09DFAFA20FFF7CCFE3A68814911F81230BE
S11326F06FF3451301F812307D4800F08FFAEFE0D4
S11327003A687B4911F8123043F0400301F8123063
S11327103B68774A5B0013445A7842F004025A70CB
S1132720734800F07BFAFA20FFF7AAFE3A68704972
S113273011F812306FF3861301F812303B686C4ABB
S11327405B0013445A786FF382025A70684800F0B1
S113275065FAC5E03A68664911F8123043F080031F
S113276001F81230624800F059FAFA20FFF788FEA7
S11327703A685F4911F812306FF3C71301F8123049
S11327805B4800F04BFAABE03B68594A5B001344EA
S11327905A7842F001025A70554800F03FFAFA2084
S11327A0FFF76EFE3B68524A5B0013445A786FF39E
S11327B000025A704E4800F031FA91E03B684C4AEE
S11327C05B0013445A7842F002025A70484800F001
S11327D025FAFA20FFF754FE3B68454A5B00134490
S11327E05A786FF341025A70414800F017FA77E0C3
S11327F03A683F4911F8123043F0400301F81230AF
S11328003B683B4A5B0013445A7842F004025A7016
S1132810374800F003FAFA20FFF732FE3A683449E9
S113282011F812306FF3861301F812303B68304A06
S11328305B0013445A786FF382025A702C4800F0FC
S1132840EDF94DE03B682A4A5B0013445A7842F0A4
S113285008025A70264800F0E1F9FA20FFF710FE4A
S11328603B68234A5B0013445A786FF3C3025A70DF
S11328701F4800F0D3F933E03B681D4A5B00134462
S11328805A7842F010025A70194800F0C7F9FA2039
S1132890FFF7F6FD3B68164A5B0013445A786FF362
S11328A004125A70124800F0B9F919E03B68104A52
S11328B05B0013445A7842F020025A700C4800F02E
S11328C0ADF9FA20FFF7DCFD3B68094A5B001344CD
S11328D05A786FF345125A70054800F09FF900BF0B
S11328E0FA20FFF7CDFD00BF0837BD4680BD00BF0D
S11328F09801002080B588B000AF78600023FB61A8
S11329000AE0FB6901211846FFF794FCC820FFF791
S1132910B7FDFB690133FB61FB69072BF1D97B68C8
S1132920002B2AD00023BB6124E000237B6107E055
S11329307B6900211846FFF77DFC7B6901337B61CD
S11329407B69072BF4D97D20FFF79AFD00233B61B7
S113295007E03B6901211846FFF76CFC3B69013332
S11329603B613B69072BF4D97D20FFF789FDBB69E7
S11329700133BB61BB69022BD7DD0023FB6007E099
S1132980FB6800211846FFF755FCFB680133FB6028
S1132990FB68072BF4D900BF2037BD4680BD00007B
S11329A080B582B000AF094A3B4692E8030083E851
S11329B003003B461846FFF7D1FBFA20FFF760FD02
S11329C0FFF70AFAFA20FFF75BFDECE75C3400003E
S11329D080B483B000AF03463960FB7197F90730C8
S11329E0002B0ADB3B68DAB20C4997F90730520135
S11329F0D2B20B4483F800230AE03B68DAB20849F8
S1132A00FB7903F00F03043B5201D2B20B441A7654
S1132A1000BF0C37BD4680BC704700BF00E100E03A
S1132A2000ED00E080B582B000AF78607B68013BC8
S1132A30B3F1807F01D301230FE00A4A7B68013B95
S1132A40536007214FF0FF30FFF7C2FF054B002210
S1132A509A60044B07221A60002318460837BD46C3
S1132A6080BD00BF10E000E080B400AF034BDB6C1E
S1132A701B0EDBB21846BD4680BC7047B081E00F28
S1132A8080B582B000AF0E4B01221A64FFF7ECFF51
S1132A900346FB713B1D1846FFF704F8FB790F2B27
S1132AA00AD93B79022B07D9064B1B6823F0500344
S1132AB0044A43F01003136000BF0837BD4680BDCD
S1132AC000000C40C0800C4080B582B000AFFFF71E
S1132AD0D7FF0020FFF72AFA00F05CF93248FEF72E
S1132AE071F80246314BA3FB02239B091846FFF7FA
S1132AF099FF0346002B00D0FEE7FFF7D7FC2C4BD1
S1132B0003221A602A4B03225A6042E02848FFF746
S1132B10BBFB274B93E80300FFF72CFD254B1B68F9
S1132B201846FFF75FFA244B1B78062B1DD1234B65
S1132B301A681F4B93E80300FFF738FC0346FB7049
S1132B40FB78002B0DD01A4B93E80300FFF7F2FB40
S1132B501A4B1B681846FFF75DFC03461A46184BD0
S1132B601A70FB781846FFF7C5FE00237B600DE062
S1132B70144A7B6832F81310134A7B6822F8131046
S1132B80114800F04BF87B6801337B607B68062BAF
S1132B90EEDD0B4B1B7883F00103DBB2002BB5D1C8
S1132BA0FFF7FEFEF5E700BF70000200D34D621090
S1132BB0900100206C0100200C0000207001002016
S1132BC06B0100205C0100209801002080B483B0D8
S1132BD000AF0346FB71FB79002B03D0054B0122A8
S1132BE01A6602E0034B00221A6600BF0C37BD468A
S1132BF080BC704700A0084080B483B000AF786008
S1132C0000BF054B5A6E7B681340002BF9D100BFFF
S1132C100C37BD4680BC704700A0084080B586B024
S1132C2000AF78604FF0FF30FFF7E6FF0120FFF7B9
S1132C30CDFF0023BB753CE00023FB7533E0BA7D78
S1132C40F97D21481346DB009B1A9B0003440B4487
S1132C500E331B783B61BA7DF97D1B481346DB00BC
S1132C609B1A9B0003440B441B78FB60BB7D5B00F9
S1132C707A6813441B881A46FB7D42FA03F303F077
S1132C800103002B06D0FB68396901221846FEF7C0
S1132C9095FC05E0FB68396900221846FEF78EFCB6
S1132CA0FB7D0133FB75FB7D0D2BC8D9BB7D013347
S1132CB0BB75BB7D062BBFD90020FFF787FF00BF84
S1132CC01837BD4680BD00BF1000002080B483B01B
S1132CD000AF0346FB7197F90730002B0BDBFB7940
S1132CE003F01F02064997F907305B09012000FA37
S1132CF002F241F8232000BF0C37BD4680BC704768
S1132D0000E100E080B483B000AF0346FB7197F9A3
S1132D100730002B0CDBFB7903F01F02074997F9FE
S1132D2007305B09012000FA02F2603341F82320E6
S1132D3000BF0C37BD4680BC704700BF00E100E017
S1132D4080B483B000AF786039607B683A689A6475
S1132D5000BF0C37BD4680BC704780B483B000AF61
S1132D60786039607B68DA6C3B681A437B68DA64A4
S1132D7000BF0C37BD4680BC704780B483B000AF41
S1132D8078607B68DB69DBB218460C37BD4680BCD3
S1132D9070470000B0B586B000AF244B5B6C234A8B
S1132DA043F4005353640123042207210520FEF752
S1132DB0C9FA01211E48FDF79DFE1E4B3C461D46E7
S1132DC00FCD0FC495E8030084E803003B46194681
S1132DD01948FEF70DFF0123042200210420FEF709
S1132DE0B1FA0023012201210420FEF7ABFA124BB1
S1132DF05B6D114A43F4807353650F4B5B6D0E4A50
S1132E0043F00303536504210B48FFF799FF0421A2
S1132E100948FFF7A2FF1420FFF774FF1420FFF7FF
S1132E2055FF00BF1837BD46B0BD00BF00800C4041
S1132E30003204004435000000E0004080B582B058
S1132E4000AF1D48FFF799FF0346FB71FB79642B24
S1132E5019D0642B04DC202B1DD0612B0FD01EE075
S1132E60772B04D0782B12D0732B04D017E0134B9C
S1132E7003221A7017E0114B04221A7013E00F4B4F
S1132E8001221A700FE00D4B02221A700BE00B4B5B
S1132E9006221A7007E0094B05221A7003E0074B5B
S1132EA000221A7000BF04210348FFF749FF00BF46
S1132EB00837BD4680BD00BF00E000400C00002084
S1132EC00028B8BF4042704708B5074B044613B109
S1132ED00021AFF30080054B1868836A03B198475B
S1132EE0204600F029F900BF000000005C35000016
S1132EF070B500250C4E0D4CA41BA410A54209D19D
S1132F0000F01CF900250A4E0A4CA41BA410A5428B
S1132F1005D170BD56F8253098470135EEE756F8CF
S1132F20253098470135F2E73801002038010020A8
S1132F30380100203C01002003460244934200D1A2
S1132F40704703F8011BF9E738B50D4B05461C68BB
S1132F50A36B7BB9182000F06DF80A4A0A4BA063F2
S1132F60C0E90023094B012283600B2383810023E2
S1132F70C0E904230022A36B1D615A6138BD00BF60
S1132F80D40000200E33CDAB34126DE6ECDE050028
S1132F9038B5134B1C68A36B7BB9182000F04AF8B2
S1132FA0104A114BA063C0E90023104B0122836037
S1132FB00B2383810023C0E90423A16B0C480A6915
S1132FC04B6950430B4C04FB0300A2FB0423034452
S1132FD0541C43F10005C1E9044525F0004038BD07
S1132FE0D40000200E33CDAB34126DE6ECDE0500C8
S1132FF02DF451582D7F954C034613F8012B002ACC
S1133000FBD1181A0138704770B50446013902B96A
S113301070BD234611F8015F561E03F8015B2DB9FC
S11330201444A342F4D003F8015BFAE71C46324689
S1133030EDE70000024B0146186800F003B800BF3A
S1133040D400002070B5CD1C25F0030508350C2DE7
S113305038BF0C25002D064601DBA94203D90C23F9
S11330603360002070BD00F057F8214A14682146EF
S113307091B9204C23681BB9304600F03DF820601C
S11330802946304600F038F8431C24D10C2330463E
S1133090336000F042F8E4E70B685B1B18D40B2B99
S11330A00FD90B60CC18CD50304600F036F804F13F
S11330B00B00231D20F00700C31AD3D05A42E2505C
S11330C0D0E74B688C4216BF636013600C46EBE795
S11330D00C464968CCE7C41C24F00304A04205D084
S11330E0211A304600F008F80130CFD02560DBE724
S11330F0840100208801002038B50023054C0546D2
S11331000846236000F00AF8431C02D1236803B187
S11331102B6038BDA801002070477047044A054958
S11331201368002B08BF0B461844106018467047FC
S11331308C010020B0010020FEE700BFF8B500BFFD
S1133140F8BC08BC9E467047F8B500BFF8BC08BC84
S11331509E467047010105070703040203020406A3
S113316005060D0E0E0E0D0D0D0D0E0E0E0E0D0D93
S113317001010507070304020302040605060F10F4
S113318010100F0F0F0F101010100F0F0101050773
S11331900703040203020406050611121212111198
S11331A01111121212121111010105070703040271
S11331B0030204060506131C1C1C131313131C1C06
S11331C01C1C131300010507060203010302040675
S11331D004051D1E1E1E1D1D1D1D1E1E1E1E1D1D45
S11331E000010507060203010302040604051F206B
S11331F020201F1F1F1F202020201F1F0101050743
S113320007030402030204060506212222222121C7
S1133210212122222222212107050201030604235F
S11332202323232323230705020103060424242440
S11332302424242407050201030604252525252525
S1133240252507050201030604262626262626260A
S11332500001070206272727272700000000000097
S11332600000131211100F0E0D0C00000000212598
S1133270242601010304040203020D0E0D0D0E0D9C
S11332800E0E01010304040203020F100F0F100FAE
S1133290101001010304040203021112111112118E
S11332A012120101030404020302131C13131C135E
S11332B01C1C00010203040103021D1E1D1D1E1D12
S11332C01E1E00010203040103021F201F1F201FF2
S11332D020200101030404020302212221212221CE
S11332E0222205070704040605060E0E0D0D0E0E18
S11332F00D0D050707040406050610100F0F101026
S11333000F0F050707040406050612121111121205
S1133310111105070704040605061C1C13131C1CC5
S1133320131305070603040604051E1E1D1D1E1E99
S11333301D1D050706030406040520201F1F202069
S11333401F1F050707040406050622222121222245
S1133350212100000000001180020000000002068C
S11333600000200039000F00000040150020400438
S1133370001000223F0006005B044F0466046D0445
S11333807D0407007F046F0400000000000A0000B1
S113339080200000FFFF7704790A3900B02079000B
S11333A071007D04760406000E00700A3800B6022F
S11333B0B6083F0073043F08730C6D0401113E000E
S11333C030223628802A6E040922390080080F0032
S11333D001000800000158107C0458005E045820C5
S11333E071040C0C740404000E00700C38005414A6
S11333F054045C04730467045004080C78001C0033
S113340010201428802A0C08482000003F000600E1
S11334105B004F0066006D007D0007007F006F00B9
S113342077007C0039005E007900710040000000E4
S113343001000000030040000C0000000000000038
S1133440000000005052455353205350414345203F
S1133450544F20535441525400000000594F5520FA
S1133460574F4E003000000080080800080000009C
S11334700600800840044004001108000800000011
S11334800000010001008008001100000022060075
S1133490002208000800000040044004000000115D
S11334A0002208000800000080080022000000112B
S11334B001000100800800000000800800000600F0
S11334C001000100002230000022400440040000FA
S11334D080080000002240044004001100000000A5
S11334E0800801000100800800000000060000229E
S11334F00011000080084004400400000022400441
S113350040040022060000000100010080080800B9
S113351008000000060000000022000040044004EF
S11335200011800800000011080008008008000055
S113353030000022000000000600010001008008A5
S113354000000022050000000000000000C201008D
S1133550000500000010000000000000D80000205A
S10735600000000063
S10B3564B8CBFF7F0100000059
S113356C006CDC0200800000809FD500020000008B
S113357C01010507070304020302040605060D0EE8
S113358C0E0E0D0D0D0D0E0E0E0E0D0D010105077B
S113359C070304020302040605060F1010100F0F94
S11335AC0F0F101010100F0F010105070703040271
S11335BC0302040605061112121211111111121232
S11335CC1212111101010507070304020302040678
S11335DC0506131C1C1C131313131C1C1C1C131387
S11335EC00010507060203010302040604051D1E5F
S11335FC1E1E1D1D1D1D1E1E1E1E1D1D000105074C
S113360C060203010302040604051F2020201F1FC9
S113361C1F1F202020201F1F010105070703040280
S113362C0302040605062122222221212121222221
S113363C22222121D80000200000000000000000FC
S113364C000000000000000000000000000000006A
S113365C000000000000000000000000000000005A
S113366C000000000000000000000000000000004A
S113367C000000000000000000000000000000003A
S113368C000000000000000000000000000000002A
S113369C000000000000000001010000DD0000003B
S90301916A
